:020000040800F2
:100000000002002055040008F1030008AD030008B9
:100010000104000811040008210400080000000089
:100020000000000000000000000000009103000834
:1000300031040008000000007503000841040008B6
:1000400025010008250100082501000825010008F8
:100050002501000825010008C5100008C51000088A
:10006000C5100008C5100008C510000825010008CB
:1000700025010008250100082501000825010008C8
:1000800025010008250100082501000825010008B8
:10009000250100082501000825010008C5100008F9
:1000A0002501000825010008250100082501000898
:1000B0002501000825010008250100082501000888
:1000C0002501000825010008250100082501000878
:1000D00025010008D90F0008DF0F0008E50F000810
:1000E000C51000089113000825010008250100082B
:1000F0002501000800000000250100082501000876
:100100002501000825010008250100082501000837
:100110002501000825010008250100082501000827
:100120002501000800F08CB900F0ECBA704700001F
:1001300070B50C46064600F087FA094B094A1D685F
:100140002C44944202D8084A944207D20C234FF020
:10015000FF35336000F080FA284670BD1C60F9E777
:100160000002002000400120B8110020194610466E
:1001700000F0D4BA1946104600F0D8BA1323036031
:100180004FF0FF307047132303604FF0FF3070478C
:10019000132303604FF0FF307047002302290360F0
:1001A0008CBF002001207047134910B50C68002057
:1001B00094FAA4F18442B1FA81F108BF4FF0FF3103
:1001C0000E4C0F4B54F8211018600E4B09681A683A
:1001D000A1F1080494420ED022B11079092804BF7D
:1001E0000A2010710922012001F8042C31F9021CA7
:1001F000054A1C60118010BD8C020020A002002066
:10020000980200209402002090020020082930B5B6
:1002100003791AD9082B14D842791A4B00F1080433
:1002200053F822507DB12D68856053F822502C6020
:1002300043F822400123144A4479A340146823431D
:100240001360017130BD8460F2E7082BF9D945795C
:100250000C4B53F825203AB11468A2420BBF002280
:10026000246843F825201460427953F82230002B8B
:10027000E7D10123044C03FA02F2236823EA0203C4
:100280002360DEE7A00200208C02002008B5094BA5
:100290001B681A79082A02D95B79834205D900F0D4
:1002A000DEF918B10122044B1A6008BDBDE8084010
:1002B00000F058B89402002098020020002408B5ED
:1002C00000F0C2F9084B094A1B88094D1BB242F8DD
:1002D0002340084A214613682868013B1360FFF752
:1002E00095FF2C6000F03AF890020020E002002018
:1002F000940200209C02002013444FF0773223F038
:10030000030310B51C1F43F8042C620742BF4FF0D3
:100310008832A3F1080443F8082C4FF0807344E9B5
:1003200002030D4B002244F80C3C0323022044E955
:1003300005320123224644E907300B2342F8201DF1
:1003400042F8043D013B032BFAD120466FF0020333
:1003500040F8443D10BD00BFBD02000800F078F930
:1003600001DFFEE7024A536843F080535360704751
:1003700000ED00E0EFF3098020E9F00F40F804ED14
:1003800002490968086000F003F8000094020020A8
:10039000FFF70AFF04480068016801C9B1E8F00FDF
:1003A00081F3098800470000940200200D4B0E4A9B
:1003B0000E496846904203D8984201D9002102E0D4
:1003C00009468D46012104207246024202D1EFF314
:1003D000088001E0EFF309802DE9F00F6B4600F093
:1003E0006FF800BF580100200040012000020020EB
:1003F00008B50249042000F0B1F900BF83280008C5
:1004000008B50249062000F0A9F900BF70280008CD
:1004100008B50249072000F0A1F900BF4A260008EC
:1004200008B50249082000F099F900BF8F2800089C
:1004300008B50249092000F091F900BF5C260008C8
:1004400008B502490A2000F089F900BF6E260008AD
:100450007047704708B5FFF7FBFF6A46114B12491A
:10046000934213D3114A124B12498B4211D30021EC
:10047000114B124A934211D3FFF7EBFF00F060F9E2
:1004800000F0F0FFBDE8084000F09AB943F8041B03
:10049000E6E752F8040F43F8040BE6E743F8041BC1
:1004A000E8E700BF00000020FEE7FEE7B42A0008EE
:1004B000000200208C0200208C020020B8110020D5
:1004C0002DE9F04F9A464A4B93469A6B8FB00392B0
:1004D0005A6B9F6A0492DA6A044605921A6BDB6BC8
:1004E00006920793434B88461A68434B9A4202D0C0
:1004F000424801F04FF8B8F1000F4ED000254048B7
:1005000001F048F82E463F4801F044F839463E488D
:1005100000F0CCFF05993D4800F0C8FF06993C4823
:1005200000F0C4FF07993B4800F0C0FF3A0403D530
:100530000399394800F0BAFF3B0603D504993748C0
:1005400000F0B4FF364801F025F85946354800F070
:10055000ADFFB8F1000F1BD1334801F01BF8314655
:10056000324800F0A3FF6946314BC91A03D549420E
:10057000304800F09BFF20468268C36801698C46C2
:1005800041698E46AD46514691E8F00F41680068DA
:1005900001BE2949052000F0E1F8D4E902300890B5
:1005A0002069D4E906690990606919F4007F0A900E
:1005B0002248D4E9001208BF04F12005CDE90C233C
:1005C00018BF04F124050B9100F0E4FF089B0B9980
:1005D00000931B48DDE90C2300F068FFDDE90912F8
:1005E000CDF800903346174800F060FF8BE700BF5E
:1005F00000ED00E000000020FEE7FEE77C2600089A
:100600009226000857270008602700087027000876
:100610008027000890270008A0270008B0270008BE
:10062000C0270008C5270008D727000808280008A9
:1006300058010020302800085D280008C126000865
:10064000DC26000819270008EFF3108072B6704707
:1006500062B6EFF31080704780F310887047EFF3B5
:100660000580C0B270470000074A08B5136943F01F
:1006700004031361FFF7E8FFBFF34F8F30BFBDE8FE
:100680000840FFF7E9BF00BF00ED00E008B5164BDA
:100690000128187004D0022814D04FF0FF3008BD94
:1006A000124B1A6842F00E021A601A6842F4007285
:1006B0001A605A6842F4E0625A60FFF7D5FF00F012
:1006C00099F9EAE7094B1A6822F002021A601A68DF
:1006D00042F004021A601A6842F001021A601A68B5
:1006E00042F400721A60E8E76403002000700040E2
:1006F00008B5FFF7A9FF0022014B1A7008BD00BF23
:1007000064030020034B044A4FF4E131002000F061
:1007100055BC00BF04020020350900080A46014606
:10072000014800F012B900BF0402002010B50C46C9
:100730000A460146002000F079FB204610BD00006B
:1007400008B500F035F9BDE808400121014800F086
:100750004CBC00BF000402407047000008B50C4BC1
:100760000C461A6872B9012203281A6003D1714637
:10077000084800F09BFE2146074800F097FE074816
:1007800000F094FEFFF760FFFFF7E6FFFFF7B0FF12
:10079000A8030020B5280008B9280008D5280008BB
:1007A00008B500F0F9FC034800F080FE00F0DCFC26
:1007B000002008BDE328000808B500F0D9F8FCE7E0
:1007C0001FB50024FFF740FF0D4B0F221B684FF4AD
:1007D000807102930B4B019400930B480C2300F0A3
:1007E00033F80A4B07221B684FF44061CDE90143FF
:1007F000074B084800930C2300F026F8FFF7AEFDE6
:1008000018020020B9070008AC0300201C020020D9
:10081000A1070008AC04002038B50B79082B03D9D8
:1008200008490320FFF79AFF4C7901F10802036899
:1008300013B98B60026038BD13F8035CAC42F8D387
:100840001846F4E7A32800080F2A2DE9F74F0546BC
:100850008B4691469A4633D810F003030FBF0B46E0
:10086000C3F10403ED18CB1A303B23F003031AF055
:10087000080F05EB030419D12D6003E01260043268
:10088000A242FBD30193FFF7DFFE012280462749F6
:10089000019B51F8226017B2AEB10132212AF8D182
:1008A0004046FFF7D9FE6FF08A073BE02A46E7E7AC
:1008B00001212046FFF7AAFC4046FFF7CDFE31E0BC
:1008C0006FF015072EE041F822402A46DDE90C01C1
:1008D000E780FFF711FD0E9B154AA3624FF0FF332F
:1008E000C4E9073613681AF0010F03F10103206011
:1008F0006562C4F82CB084F805902671C4E90266DC
:10090000C4E90466A6611360D2D10A212046FFF72C
:100910007DFC1AF0040FCFD14046FFF79DFE4846FC
:10092000FFF7B4FC384603B0BDE8F08FE0020020CA
:100930009C02002038B5054600F001FC044605F194
:10094000100000F05BFC204638BDF8B504460D46AB
:10095000164600F1100732462946204600F0DAFB21
:1009600000B1F8BD0121384600F018FCF3E70000A3
:1009700073B504240D4D02AA296842F8041D631EB4
:10098000995C11B91C46002BF9D1FFF75DFE2B686D
:10099000019A06469A4202D160B2FFF777FE3046CE
:1009A00002B0BDE87040FFF757BE00BF2002002034
:1009B00070B500F049FC4FF08051002000F0E0F8E5
:1009C0004FF0FF3600F016F8084C094D204600F0B5
:1009D0005BFC20B1266004F58064AC42F6D100F0E7
:1009E000C1FBBDE8704000F0FFB800BF000002404E
:1009F00000300240554B13B51A68554C42F48072D2
:100A00001A609A6822F47F5222F030029A609A6843
:100A100022F0EE429A609A6822F003029A60196806
:100A20004C4A0A4000211A60D9602268022A6DD01F
:100A3000B2F5003F1A6842F480321A606BD1434924
:100A40000A6823681A42FBD0434B1A6842F004023A
:100A50001A601A6842F001021A601A6842F0020233
:100A60001A609A691007FCD54FF08051002000F001
:100A700087F83A4B1A6822F4C05242F400621A60B6
:100A80005A68D106FCD4314B9A6822F47F5222F086
:100A900030029A609A6822F47D029A602268B2F568
:100AA000003F9A680CBF42F4050242F488029A6043
:100AB0001A6842F080721A601A689201FCD540F2FE
:100AC00001129B6826492068B0F5003F08BF114617
:100AD00043F003021D4B9A609A6802F00C020C2A44
:100AE000FAD11A681F4822EA01021A6009221E4B35
:100AF0002C3040F8043C2368B3F5003F0CBF1B4981
:100B00001B4902B0BDE8104000F080BD1A6842F0F9
:100B100001021A6093E74FF4003242F21070226033
:100B2000019119682268114289D1019A013201921A
:100B3000019A8242F5DD1A6842F001021A601A68D1
:100B400022F480321A600223236078E700380240E2
:100B5000AC100020FEFFFAEE003C024000700040A6
:100B600000010100B01000200048E801172900082A
:100B70001F290008014B986A704700BFB010002081
:100B800001280AD004D302280CD0BFF34F8F70473E
:100B9000074A536A19435162F7E7054A136A194332
:100BA0001162F2E7024AD3691943D161EDE700BF50
:100BB00000380240012809D002D302280CD0704727
:100BC000084A536A23EA010151627047054A136AD1
:100BD00023EA010111627047024AD36923EA010145
:100BE000D16170470038024073B54FF4A0324FF422
:100BF00080614FF0005000F063FB04254E4C4FF431
:100C0000002220604FF480614FF00060257100F0F9
:100C100057FB4FF480732361E368A060B0FBF3F0EF
:100C20004FF48042E0604FF400614448257500F0C5
:100C300047FB4FF0802323624FF40043A3842387B4
:100C40003F4B2577A061186800F01EFB3D4B002844
:100C5000186814BF6E25642500F016FB00B133350B
:100C6000394B186800F010FB00B101354FF4002239
:100C70004FF480614FF0006000F022FB800AB0F575
:100C8000807F4DD010D8202844D005D8082822D005
:100C900010284FD078221FE080283DD0C0283DD0BA
:100CA0004028F7D1382217E0B0F5407F3CD007D874
:100CB000B0F5C07F36D0B0F5007FEBD145220BE018
:100CC000B0F5C06F32D0B0F5006F31D0B0F5806FA5
:100CD000E0D1472200E0332240F229401B4E2B4650
:100CE00031680092C1F30B0181420CBF184A194AC6
:100CF0001421194800F056FC3368C3F30B03A3F228
:100D00001643212B8EBF0023144AD35C84F84E3047
:100D100002B070BD3622DFE74222DDE75A22DBE770
:100D20004322D9E74422D7E74622D5E74822D3E732
:100D30004922D1E73422CFE7B01000200000080894
:100D400000000650007C004000240040002004E029
:100D50004929000859290008EA100020272900081D
:100D600038B5182343430D4AD5582C88A4B2A2069F
:100D700008D50B4BA98803EBC002C9B253F8303039
:100D800050689847230748BFAB88064B1B681BB1C8
:100D9000BDE83840FFF7E6BA38BD00BF6829000853
:100DA00000110020980200202DE9F041182545434C
:100DB0001D4E0C4606EB050898F814703846FFF7F0
:100DC000D9FEB0FBF4F0072808D83846D8F804104C
:100DD000FFF7F0FE6FF00100BDE8F08173590F28B6
:100DE0009A8922F400524FEA02424FEA12429A8153
:100DF0009989C2B20DD8083A41F4004142F010027C
:100E00009981D2B21A819A89002042F400529A81C3
:100E1000E2E7C1F30E0199814FF6F07102F00F0283
:100E200001400A43EEE700BF68290008022810B518
:100E30000AD8182358430A4B0A441B58914207D139
:100E40001A885206FCD510BD06490320FFF786FC20
:100E500011F8010B1C882406FCD580B29880EDE7C0
:100E600068290008A3280008022808B503D9074903
:100E70000320FFF773FC1822054B02FB0030BDE88E
:100E800008404168007DFFF77BBE00BFA328000833
:100E90006829000802282DE9F04705460F469046CC
:100EA00003D942490320FFF759FC1824DFF808A1B1
:100EB0003F4A04FB00A4D4F8089042F8308002EBCB
:100EC000C0025360217C484600F08FF8E668617CE0
:100ED000304600F08AF8304600F0E8F8E17C304611
:100EE00000F0C0F8B8F1000F07D00021484600F02C
:100EF0007CF8A17C484600F0B5F82846FFF7B4FF1F
:100F000018236B435AF803400023A3812382A38252
:100F10003B79012B02BFA38943F48053A3817B79E2
:100F2000012B2AD0022B31D0BB79022B32D0032BDC
:100F300034D01BB9238A43F480532382396828466E
:100F4000FFF732FF70BB42F20803A381B8F1000F34
:100F500011D01823012103FB05A56B7D5AB203F0C4
:100F60001F0301FA03F31349520941F82230A38900
:100F700043F02403A381BDE8F087A38943F4806391
:100F8000A381A38943F40073A381CDE7A38943F42C
:100F90008063F9E7238A43F44053CEE7238A43F47E
:100FA0000053CAE76FF00100E5E700BFA32800087F
:100FB0000011002000E100E06829000807B5009159
:100FC0000021ADF8041001218DF806106946FFF7E5
:100FD00061FF03B05DF804FB0020FFF7C1BE0120F4
:100FE000FFF7BEBE0220FFF7BBBEF8B5431C0D469F
:100FF00037D0012620F00F0400F00F07C0F3832044
:1010000006FA00F10220FFF7BBFD032307FA06FCF6
:1010100003FA0CF3D843226805F003010240226072
:10102000226801FA0CF111432160E268BE401040D1
:10103000E0600020E168C5F3810202FA0CF20A4385
:10104000E260A288C5F3001522EA0602A280A28807
:10105000BD401543ADB2A580A268B6B21343A360EC
:101060002685F8BD431C70B51FD0032200F00F0485
:1010700020F00F031D686600B24025EA0205022237
:10108000072C94BF00240124B2402A431A6003EBCA
:1010900084030F2400F007001A6A8000844022EACB
:1010A000040201FA00F01043186270BD431C07D01F
:1010B000012320F00F0200F00F0003FA00F090610E
:1010C000704700002DE9F04100244FF001080E4D5B
:1010D0000E4F6E692A68164008FA04F3334206D0B0
:1010E0006B6107EBC40357F834205868904701340C
:1010F000102CF1D1064B1B681BB1BDE8F041FFF786
:1011000031B9BDE8F08100BF000401401811002092
:101110009802002070B514461CB18568C3689D42D2
:1011200001D1101B70BD86680568731C836043681D
:10113000013C013B3340EB5C01F8013BECE7C2684A
:1011400030B584684368121B9A4208D0C2680468AC
:10115000551CC5600020013B1340E15430BD4FF0E9
:10116000FF30FBE700F0C4B808B5064800F012FAFB
:101170000549064800F09AF90549064800F096F935
:10118000002008BDB0290008BD290008CE290008AC
:10119000F6290008FE2900087047000070B50446D3
:1011A0000D46FFF751FA236806463BB94FF0FF336F
:1011B0002360FFF751FA0125284670BDC5B10E4BDB
:1011C00002211D682846FFF721F8236801330AD160
:1011D00005F1080323600023AB603046FFF73CFABB
:1011E000FFF7C0F8E7E729462046FFF715FBF4E7CD
:1011F000FFF732FAE0E700BF9402002070B5044622
:10120000FFF722FA256806461DB9BDE87040FFF7D2
:1012100023BA6B1C02D100232360F6E7284650F85E
:1012200008390A212360FEF7F1FF236813B94FF054
:10123000FF33236015F8034C3046FFF70DFA2046C4
:10124000BDE87040FFF722B80C4B0D4A10B59A600C
:10125000102200210B4C83F82220DA77601801312C
:10126000392980F80023F9D11A6942F010021A6175
:101270005A6942F400725A6110BD00BF00ED00E0EF
:101280000000000800E100E00C4B9A6A42F40042C2
:101290009A62EFF3138171B65A6942F480725A610F
:1012A0000278986A5A6922F480725A6181F313882D
:1012B00080F40040C0F3C030704700BF00ED00E094
:1012C000F8B505460F46164604463C442046FFF74F
:1012D000DBFF631B08B19E42F7D81846F8BD00003B
:1012E000CA22024B5A6253225A62704700280040B9
:1012F00008B500F0A5F800F093F8204B5A6B22F4E3
:1013000040325A635A6B42F482025A63FFF7E8FF95
:101310001B4BDA6842F08002DA60DA685106FCD5CD
:1013200000229A608022DA60164A1A619A6822F0D6
:1013300040029A609A6822F400629A60DA6822F0A9
:101340008002DA600E4BDA685206FCD4FF225A6241
:101350000D4BDA6822F40032DA609A6842F4003207
:101360009A601A6842F400321A605A6942F40032F4
:101370005A614FF40072054B5A6008BD00380240B4
:1013800000280040FF0F07000004014000E100E0DA
:1013900010B51F4CE368D8050DD51E4A13680BB174
:1013A000D0689847E3681C4A23F48073E36053696C
:1013B00043F400335361164CE36899050DD5154A83
:1013C00053680BB110699847E368134A23F400731C
:1013D000E360536943F4003353610D4BDA685205FF
:1013E0000DD5DA6822F48062DA600A4A93680BB19C
:1013F00050699847084A536943F480135361074B77
:101400001B681BB1BDE81040FEF7ACBF10BD00BFAC
:10141000002800409811002000040140980200209C
:10142000024A136843F480731360704700700040F1
:10143000024A136823F48073136070470070004001
:1014400008B5FFF7EDFF064B5A6B42F480725A6302
:101450005A6B9205FCD5BDE80840FFF7E9BF00BF15
:101460000038024070B500250C4E0D4CA41BA41092
:10147000A54209D1FEF758FE00250A4E0A4CA41BCE
:10148000A410A54205D170BD56F825309847013506
:10149000EEE756F8253098470135F2E7B82A0008FC
:1014A000B82A0008B82A0008B82A00080FB40A4B66
:1014B00013B51C6824B1A36913B9204600F06CFA77
:1014C00005AB049AA1682046019300F07BFD02B0B1
:1014D000BDE8104004B070472402002070B50E46ED
:1014E000054618B183690BB900F056FAAB69AC68D0
:1014F00013B9284600F050FA234B9C4217D16C6870
:10150000A3891B071DD52369DBB1013EA36816F82B
:10151000011F013BA360E9B9002B2EDA22460A2104
:10152000284600F089F8013011D00A2011E0174B4D
:101530009C4201D1AC68E3E7154B9C4208BFEC68C4
:10154000DEE72146284600F0C9F80028DDD04FF03C
:10155000FF3070BD002B04DAA2699A4206DC0A292A
:1015600004D023685A1C22601970CFE7224628460F
:1015700000F062F80130C9D1E9E70A2023685A1C5B
:1015800022601870E5E700BF442A0008642A0008BA
:10159000242A0008024B01461868FFF79FBF00BFCE
:1015A000240200200CB430B5174B0C1E9DB01D68F2
:1015B00008DA8B234FF0FF302B601DB0BDE83040C0
:1015C00002B070474FF40273ADF814300CBF2346DD
:1015D00004F1FF33049307934FF6FF7302900690D4
:1015E000ADF81630209A21AB02A92846019300F0ED
:1015F000C9FB431CBCBF8B232B60002CDDD0002219
:10160000029B1A70D9E700BF2402002070B504467F
:10161000013902B970BD234611F8015F561E03F867
:10162000015B2DB91444A342F4D003F8015BFAE73F
:101630001C463246EDE70000F8B50E461446054656
:1016400018B183690BB900F0A7F9214B9C422AD14C
:101650006C68A369A360A3891A072ED5236963B3B5
:1016600023692068F6B2C01A63693746834204DCF6
:101670002146284600F026F928BBA3680130013B2B
:10168000A36023685A1C22601E706369834204D0E1
:10169000A389DB0719D50A2E17D12146284600F069
:1016A00011F990B10FE00B4B9C4201D1AC68D0E72F
:1016B000094B9C4208BFEC68CBE72146284600F066
:1016C0000DF80028CCD04FF0FF373846F8BD00BFEA
:1016D000442A0008642A0008242A0008324B70B506
:1016E0001D6806460C4625B1AB6913B9284600F0C3
:1016F00053F92E4B9C420FD16C68B4F90C309AB25E
:1017000015072CD4D00611D40922326043F04003CF
:10171000A3814FF0FF303EE0254B9C4201D1AC68E5
:10172000EBE7244B9C4208BFEC68E6E7510712D573
:10173000616B41B104F14403994202D0304600F09C
:1017400021FA00236363A38923F02403A3810023E8
:10175000636023692360A38943F00803A38123699D
:101760004BB9A38903F42073B3F5007F03D021465E
:10177000304600F0BFF9A28912F001030CD000231B
:10178000A36063695B42A361236953B9B4F90C3068
:1017900013F08000BAD170BD920758BF6369A3608F
:1017A000F2E70020F7E700BF24020020442A0008E7
:1017B000642A0008242A00088A892DE9F041054698
:1017C00010070C4658D44B68002B05DC0B6C002B23
:1017D00002DC0020BDE8F081E66A002EF9D000238B
:1017E00012F480522F68216A2B6032D0606DA38979
:1017F0005A0705D56368C01A636B0BB1236CC01A16
:1018000000230246E66A216A2846B047431CA389A2
:1018100006D129681D2948D8294ACA40D60744D587
:10182000002262602269D904226004D5421C01D1E1
:101830002B6803B96065616B2F600029C9D004F182
:101840004403994202D0284600F09CF900206063CE
:10185000C0E701232846B047411CC8D12B68002BA4
:10186000C5D01D2B01D0162B01D12F60B1E7A38964
:1018700043F04003A381ADE70F69002FA9D0930780
:1018800018BF00230E6808BF4B69A6EB07080F605E
:101890008B60B8F1000F9CDD43463A46216A28462A
:1018A000A66AB047002806DCA38943F04003A38161
:1018B0004FF0FF308EE70744A8EB0008E9E700BFD0
:1018C0000100402038B50B6905460C46DBB118B164
:1018D00083690BB900F060F80C4B9C4209D16C682D
:1018E000B4F90C307BB121462846BDE83840FFF7FB
:1018F00063BF074B9C4201D1AC68F1E7054B9C42AA
:1019000008BFEC68ECE7002038BD00BF442A00089F
:10191000642A0008242A0008002310B50446C0E900
:101920000033836081814366C281C0E904338361EF
:10193000194608225C3000F01DF9054B24626362F1
:10194000044BA362044BE362044B236310BD00BF4E
:1019500001250008232500085B2500087F250008D5
:10196000014900F085B800BFC518000870B56825AA
:101970004A1E55430E4605F1740100F04FF9044626
:1019800040B10021C0E900160C30A06005F16802EA
:1019900000F0F0F8204670BD836910B5044633BBF3
:1019A000C0E912330365124B124A1B6882629842E7
:1019B00004BF0123836100F01FF86060204600F03F
:1019C0001BF8A060204600F017F80022E060042118
:1019D0006068FFF7A1FF01220921A068FFF79CFFC3
:1019E00002221221E068FFF797FF0123A36110BDD7
:1019F000202A000861190008F8B51B4B07461E682D
:101A0000B36913B93046FFF7C7FF4836D6E901344A
:101A1000013B03D5336833B13668F7E7B4F90C50AE
:101A20006DB16834F4E704213846FFF79FFF30605A
:101A30000028F1D10C2304463B602046F8BD0B4B37
:101A40006566C4E90055A560C4E90335C4E90555D8
:101A50000822294604F15C0000F08CF8C4E90D5519
:101A6000C4E91255E9E700BF202A00080100FFFF82
:101A70002DE9F84380468946002600F1480414B950
:101A80003046BDE8F883D4E90175013F01D52468EB
:101A9000F5E7AB89012B07D9B5F90E30013303D037
:101AA00029464046C84706436835EEE770B50E46FE
:101AB000B1F90E1096B0002914461D4607DA00232E
:101AC0002B60B3891A0610D44FF480630EE06A4687
:101AD000FEF75EFB0028F2DB019A02F47042A2F5E9
:101AE00000535A425A412A60EEE740230020236007
:101AF00016B070BD8B8973B59D0706460C4607D599
:101B000004F14703236023610123636102B070BDC8
:101B100001AB6A46FFF7CAFF00990546304600F060
:101B20007DF848B9B4F90C309A05EFD423F00303DB
:101B300043F00203A381E3E70D4BB362A389206066
:101B400043F08003A381009B20616361019B5BB133
:101B5000B4F90E103046FEF720FB28B1A38923F01C
:101B6000030343F00103A381A3891D43A581CDE7AE
:101B70006119000803460244934200D1704703F8FC
:101B8000011BF9E738B50546002943D051F8043C5C
:101B90000C1F002BB8BFE41800F027FD1E4A136885
:101BA000104633B9636014602846BDE8384000F041
:101BB0001DBDA3420BD921686218934201BF1A6868
:101BC0005B685218226063600460EDE713465A6850
:101BD0000AB1A242FAD919685818A0420BD120685C
:101BE0000144581882421960DED1106852680144DD
:101BF00019605A60D8E702D90C232B60D4E720681B
:101C000021188A4201BF1168526809182160626078
:101C10005C60C9E738BD00BFB011002070B5CD1CB5
:101C200025F0030508350C2D38BF0C25002D064680
:101C300001DBA94203D90C233360002070BD00F002
:101C4000D4FC214A1468214691B9204C23681BB961
:101C50003046FEF76DFA206029463046FEF768FAF6
:101C6000431C24D10C233046336000F0BFFCE4E772
:101C70000B685B1B18D40B2B0FD90B60CC18CD5005
:101C8000304600F0B3FC04F10B00231D20F00700E8
:101C9000C31AD3D05A42E250D0E74B688C4216BFE9
:101CA000636013600C46EBE70C464968CCE7C41C44
:101CB00024F00304A04205D0211A3046FEF738FA7A
:101CC0000130CFD02560DBE7B0110020B411002037
:101CD0002DE9F0478E6882469E420C469046994612
:101CE00037D88A8912F4906F31D0022325680969A8
:101CF0006F1A656905EB450595FBF3F509F10103DD
:101D00003B449D4238BF1D46530530D52946FFF759
:101D100085FF064650B90C234FF0FF30CAF800305B
:101D2000A38943F04003A381BDE8F0873A462169C7
:101D300000F037FCA38923F4906343F08003A38170
:101D400026613E4426604E466561ED1BA5604E450A
:101D500000D94E4632464146206800F02DFCA3686B
:101D600000209B1BA36023681E442660DCE72A46F4
:101D700000F03DFC06460028E2D121695046FFF7FD
:101D800001FFC8E72DE9F04F1D468B899DB01F0666
:101D900080460C4616460FD50B696BB94021FFF7FC
:101DA0003DFF2060206128B90C23C8F800304FF0B7
:101DB000FF30C8E0402363610023099320238DF89E
:101DC000293030234FF0010B8DF82A300395374628
:101DD0003D4615F8013B0BB1252B3ED1B7EB060A6A
:101DE0000BD05346324621464046FFF771FF013083
:101DF00000F0A480099B534409933B78002B00F02A
:101E00009D8000234FF0FF32CDE905230493079313
:101E10008DF853301A932F46052217F8011B5048AE
:101E200000F0B1FB049BD0B9D90644BF20228DF845
:101E300053201A0744BF2B228DF853202A782A2AD0
:101E400015D02F4600200A25079A394611F8013B84
:101E5000303B092B4DD9B8B10FE02F46B8E7404AC7
:101E60003D46801A0BFA00F018430490D3E7039A1A
:101E7000111D12680391002A01DB079204E052420F
:101E800043F00203079204933B782E2B0CD17B780E
:101E90002A2B33D1039B02371A1D1B680392002B98
:101EA000B8BF4FF0FF3305932E4D032239782846F3
:101EB00000F069FB38B14023401B03FA00F0049B9B
:101EC0000137034304933978062227487E1C8DF896
:101ED000281000F058FB002838D0244B13BB039B7C
:101EE000073323F0070308330393099B4B440993FB
:101EF0006DE705FB023201200F46A6E700230A2505
:101F0000194601370593384610F8012B303A092A53
:101F100003D9002BC8D00591C6E705FB0121012399
:101F20000746F0E703AB00932246114B04A9404655
:101F3000AFF30080B0F1FF3F8146D6D1A3895B06A5
:101F40003FF535AF09981DB0BDE8F08F03AB0093A6
:101F50002246074B04A9404600F0C0F9EAE700BF5B
:101F6000842A00088A2A00088E2A0008000000003F
:101F7000D11C0008936810B4013B002B936007DA72
:101F80009469A34201DB0A2902D110BCFFF754BBBC
:101F90001368581C10601970084610BC7047F8B5DB
:101FA00006460F461446D518AC4201D1002007E082
:101FB0003A4614F8011B3046FFF7DCFF431CF3D10F
:101FC000F8BD00002DE9F04F0C469DB017461D46A8
:101FD000064618B183690BB9FFF7DEFC7C4B9C42C7
:101FE00058D17468A38918075ED52369002B5BD08C
:101FF0000023099320238DF8293030234FF0010B63
:102000008DF82A300395B846454615F8013B0BB1CB
:10201000252B54D1B8EB070A0BD053463A4621463C
:102020003046FFF7BCFF013000F0C280099B5344EB
:10203000099398F80030002B00F0BA8000234FF08D
:10204000FF32CDE90523049307938DF853301A939B
:10205000A846052218F8011B5E4800F094FA049B7C
:1020600078BBD90644BF20228DF853201A0744BFFD
:102070002B228DF853202A782A2A2AD0A84600201D
:102080000A25079A414611F8013B303B092B69D9D3
:1020900060B324E0504B9C4201D1B468A2E74F4B9F
:1020A0009C4208BFF4689DE721463046FFF716FBC7
:1020B00000289DD04FF0FF301DB0BDE8F08FA8463E
:1020C000A2E7444A4546801A0BFA00F018430490F0
:1020D000BEE7039A111D12680391002A01DB0792E3
:1020E00004E0524243F002030792049398F8003050
:1020F0002E2B0ED198F801302A2B38D1039B08F1F2
:1021000002081A1D1B680392002BB8BF4FF0FF3363
:102110000593334D032298F80010284600F033FA57
:1021200040B14023401B03FA00F0049B08F1010872
:102130000343049398F8001006222A4808F1010787
:102140008DF8281000F01FFA002837D0264B1BBB53
:10215000039B073323F0070308330393099B4B4486
:10216000099350E705FB0232012088468AE70023E5
:102170000A25194608F101080593404610F8012B7D
:10218000303A092A03D9002BC3D00591C1E705FBDA
:10219000012101238046F0E703AB00932246134B55
:1021A00004A93046AFF30080B0F1FF3F8146D5D19E
:1021B000A3895B063FF57EAF09987DE703AB0093EB
:1021C00022460A4B04A9304600F088F8ECE700BF2D
:1021D000442A0008842A0008642A0008242A0008E7
:1021E0008A2A00088E2A0008000000009F1F0008AD
:1021F0002DE9F04791461F468A680B6906469342CF
:10220000B8BF1346C9F8003091F843200C46DDF8FA
:10221000208012B10133C9F800302368990642BF0B
:10222000D9F800300233C9F80030256815F00605EA
:1022300007D104F1190AE368D9F800209B1AAB42D0
:1022400029DC94F843302268003318BF012392063A
:102250002ED404F1430239463046C047013021D024
:102260002368E56803F00603042B18BF0025D9F89E
:1022700000204FF0000908BFAD1AA368226908BF0B
:1022800025EAE5759342C4BF9B1AED181A344D45F3
:102290001AD1002008E00123524639463046C04793
:1022A000013003D14FF0FF30BDE8F0870135C2E7C0
:1022B0003020E11881F843005A1C94F8451022445C
:1022C000023382F84310C4E70123224639463046E0
:1022D000C0470130E6D009F10109D8E72DE9F04304
:1022E00001F1430C0C46097E85B06E29174606465F
:1022F00098460C9A00F0B38022D8632936D00AD8C9
:10230000002900F0B980582900F0838004F14205CB
:1023100084F8421032E0642901D06929F6D120689E
:102320001368050603F104012AD51B681160002B10
:1023300003DA2D225B4284F843206F480A2239E0F9
:10234000732900F09D8008D86F2920D07029DDD135
:10235000236843F02003236003E0752917D0782910
:10236000D4D17823654884F8453055E0136804F1EA
:102370004205191D1B68116084F8423001238CE06E
:102380001B6810F0400F116018BF1BB2CFE7136835
:102390002568181D1060280601D51B6802E0680634
:1023A000FBD51B886F2914BF0A220822524800213E
:1023B00084F843106568002DA560C0F295802168FF
:1023C00021F004012160002B3DD1002D40F08E80D2
:1023D0006546082A0BD12368DB0708D523696268A4
:1023E0009A42DEBF302305F8013C05F1FF35ACEB26
:1023F00005032361CDF800803B4603AA2146304601
:10240000FFF7F6FE01304DD14FF0FF3005B0BDE8CB
:10241000F083394884F84510136821681D1D1B6836
:1024200015600A060BD5CA0744BF41F020012160A0
:102430001BB9226822F0200222601022B7E74D0665
:1024400048BF9BB2EFE76546B3FBF2F102FB1133E5
:10245000C35C05F8013D0B460029F5D1B9E71368C7
:102460002568181D6169106028061B6801D5196070
:1024700002E06A06FBD51980002365462361B9E7AF
:102480001368191D11601D6862680021284600F05C
:102490007AF808B1401B606063682361002384F808
:1024A0004330A7E723692A4639463046C047013002
:1024B000AAD023689B0713D4E068039B9842B8BF57
:1024C0001846A3E701234A4639463046C047013043
:1024D0009AD00135E368039A9B1AAB42F2DCEBE732
:1024E000002504F11909F5E7002BACD1037804F1BC
:1024F000420584F842306CE7952A0008A62A0008B5
:1025000010B50C46B1F90E10FDF730FE0028ABBF38
:10251000636DA3891B1823F48053ACBF6365A3814B
:1025200010BD2DE9F0411F468B890546DB050C46A1
:10253000164605D502230022B1F90E10FDF723FE41
:10254000A389324623F48053A381B4F90E103B468D
:102550002846BDE8F041FDF70DBE10B50C46B1F9B7
:102560000E10FDF710FE431CA38915BF606523F410
:10257000805343F48053A38118BFA38110BDB1F9E8
:102580000E10FDF7FBBD10B5C9B2024490420346E0
:1025900001D1002303E01C7801308C42F6D11846AB
:1025A00010BD10B5431E0A44914200D110BD11F870
:1025B000014B03F8014FF7E7884210B501EB020326
:1025C00007D8421E99420AD011F8014B02F8014F78
:1025D000F8E78342F5D98118D21AD34200D110BD51
:1025E00013F8014D01F8014DF7E770477047F8B552
:1025F000074614460E4621B9BDE8F8401146FFF7DC
:102600000DBB22B9FFF7BEFA25462846F8BD00F0FB
:1026100014F8A0420FD221463846FFF7FFFA0546CC
:102620000028F2D031462246FFF7BBFF314638463C
:10263000FFF7A8FAE9E73546E7E751F8043C181F29
:10264000002BBCBF0B58C018704742555320464161
:10265000554C542048414E444C4552004445425547
:1026600047204D4F4E2048414E444C455200445562
:102670004D4D592048414E444C4552000A49535251
:1026800020737461636B206F766572666C6F77651B
:102690006400537461636B20706F696E746572209F
:1026A000636F727275707465642C207265736574E3
:1026B00020746F20746F70206F6620737461636B79
:1026C000000A436F6E74657874206265666F726588
:1026D00020686172646661756C743A002020207213
:1026E000303A2030782530386C780A20202072313A
:1026F0003A2030782530386C780A20202072323A1F
:102700002030782530386C780A20202072333A2027
:1027100030782530386C780A0020207231323A2027
:1027200030782530386C780A2020206C723A2030BE
:10273000782530386C780A20202070633A20307871
:102740002530386C780A20207073723A2030782552
:1027500030386C780A0A004653522F4641523A00EC
:1027600020434653523A2030782530386C780A009E
:1027700020484653523A2030782530386C780A0089
:1027800020444653523A2030782530386C780A007D
:1027900020414653523A2030782530386C780A0070
:1027A00020424641523A2030782530386C780A0071
:1027B0004D4D4641523A2030782530386C780A0029
:1027C0004D697363004558435F5245543A20307851
:1027D0002530386C780A00417474656D7074696EC8
:1027E0006720746F207265636F6E737472756374A3
:1027F00020737461746520666F722064656275670A
:1028000067696E672E2E2E00496E204744423A0AB1
:102810002020736574202470633D3078256C780A1D
:1028200020206672616D6520300A202062740A00E3
:102830000A49535220737461636B206F7665726628
:102840006C6F776564206279206174206C656173B8
:10285000742025642062797465732E0A0048415201
:1028600044204641554C542048414E444C4552006A
:102870004D454D204D414E4147452048414E444C29
:102880004552004E4D492048414E444C455200555A
:1028900053414745204641554C542048414E444CF5
:1028A0004552004641494C454420415353455254FA
:1028B000494F4E2E0025700A002A2A2A2052494FDD
:1028C00054206B65726E656C2070616E69633A0AA4
:1028D00025730A0A002A2A2A2068616C7465642E0E
:1028E0000A0A006D61696E28293A205468697320CC
:1028F00069732052494F5421202856657273696FBD
:102900006E3A20323031382E3037290A0069646C33
:1029100065006D61696E00504C4C2F485345005066
:102920004C4C2F48534900010000000000000000FB
:102930000000000000000000030002000000000092
:1029400000000000000000040553544D33324C25B4
:102950003033647825632D410053544D33324C2578
:1029600030336478256300000038014000400000E7
:102970000A00024009000240040107070125000087
:102980000044004000000200030002400200024038
:102990000401070700260000004800400000040072
:1029A0000B0402400A04024004010707002700004C
:1029B00048656C6C6F20576F726C642100756E7780
:1029C000642D72616E67652D6C312D723300596F05
:1029D00075206172652072756E6E696E672052494E
:1029E0004F54206F6E2061286E2920257320626F5E
:1029F0006172642E0A0073746D33326C3100546856
:102A0000697320626F6172642066656174757265B6
:102A1000732061286E29202573204D43552E0A000E
:102A2000280200200000000000000000000000005C
:102A30000000000000000000000000000000000096
:102A40000000000000000000000000000000000086
:102A50000000000000000000000000000000000076
:102A60000000000000000000000000000000000066
:102A70000000000000000000000000000000000056
:102A800000000000232D302B2000686C4C00656690
:102A900067454647003031323334353637383941AF
:102AA00042434445460030313233343536373839C5
:082AB0006162636465660000C9
:102AB800BC11002065030020400000000000000059
:102AC80000000000000000000D290008122900087D
:102AD800010101012802002000000000442A00082A
:102AE800642A0008242A00080000000000000000F2
:102AF80000000000000000000000000000000000CE
:102B080000000000000000000000000000000000BD
:102B180000000000000000000000000000000000AD
:102B2800000000000000000000000000000000009D
:0C2B380000000000000000002821000048
:040000050800045596
:00000001FF
