:020000040800F2
:10000000000200203504000811040008A1030008C4
:1000100000000000000000000000000000000000E0
:100020000000000000000000000000007503000850
:1000300000000000000000004D030008210400083B
:10004000BD000008BD00000805160008BD0000083E
:10005000BD0000081512000815120008151200084E
:10006000BD000008BD000008BD000008BD0000087C
:10007000BD000008BD000008BD0000081113000805
:10008000BD000008BD00000800000000BD00000821
:10009000BD000008BD000008BD000008BD0000084C
:1000A000BD000008BD000008BD0000080F100008DA
:1000B0001910000800000000BD00000810B500F095
:1000C000AFF910BD10B500F0C7FA10BD70470000C1
:1000D00070B50C00060000F06DFA094B094A1D6866
:1000E0002C19944202D8084A944207D20C230125C5
:1000F00033606D4200F066FA280070BD1C60F9E7BD
:100100000002002000200020C811002010B51900B6
:10011000100000F0AFFA10BD10B51900100000F08B
:10012000B3FA10BD1323036001204042704713232C
:1001300003600120404270471323036001204042C6
:1001400070470023022203608A425B411800704717
:100150000020124B10B51860114B12491B680A6839
:100160005C421C40104B6343104CDB0EE35C104CB4
:100170009B001B591B68083B93420ED0824204D05F
:100180001079092801D10130107109221A71062253
:10019000985E084A0B601080012010BD9802002074
:1001A0008C0200209402002031B57C0772290008DF
:1001B000A00200209002002030B50379082919D947
:1001C000082B13D804004379184A9B009D58083423
:1001D000002D0DD02D6885609D582C60D4500123D2
:1001E0004479134AA340146823431360017130BD5E
:1001F0008460F3E7082BF9D942790C4C920013592B
:10020000002B04D01D68AB420DD10023135145795A
:10021000AB00E358002BE9D10133AB40044A14682A
:100220009C432300E1E72A681A60F0E7A00200205F
:100230008C02002010B5094B1B681A79082A02D9D4
:100240005B79834206D900F0C0F9002803D001226F
:10025000034B1A6010BD00F06FF8FBE7940200201A
:100260009802002070B5002400F0A4F9084B094A58
:100270001B88094D1BB29B009C50084A2100136843
:100280002868013B1360FFF797FF2C6000F050F8DF
:1002900090020020E0020020940200209C02002036
:1002A000D318032293431F4A10B51C1F2260620714
:1002B00003D0083B1C001C4B23608022231F5204E8
:1002C0001A601A4A043B1860043B1A600022043B7F
:1002D0001A60043B03321A60043B013A1A60043B83
:1002E000013A1A60043B19600632043B1A60043B71
:1002F000013A1A60043B013A1A60043B013A1A6061
:10030000043B07321A60043B013A1A60043B013A8D
:100310001A60043B013A1A602000032344385B4210
:10032000036010BD77777777888888886502000832
:1003300000F044F901DFFEE78023034A5B055168C2
:100340000B4353607047C04600ED00E0EFF30980B7
:10035000EC4685464046494652465B46FFB47046E9
:1003600001B46846E54602490968086000F002F8F1
:1003700094020020FFF7ECFEEE4608480068006893
:10038000854601BC8446FFBC8046894692469B4612
:10039000684680F30988F546604700009402002013
:1003A000154B164A16496846904203D8984201D91F
:1003B000002102E0091C8D46012104207246024200
:1003C00002D1EFF3088001E0EFF3098041680D4AA4
:1003D000914208D181680C4A914204D1816902316D
:1003E00081610A4D7047F0B443464C4655465E461F
:1003F00078B46B4600F052F858010020002000202D
:10040000000200200DF0ADDEBEBAFECA0000000002
:1004100010B50249042000F01FFAC0462B2B00083B
:1004200010B50249062000F017FAC04692290008CC
:100430007047704770B5FFF7FBFF6A46104B1149D4
:100440009A4214D8002310481049114C1A188A42B5
:100450000FD300210F4B104A93420ED3FFF7E9FF51
:1004600000F0E8F901F080F900F02AFA70BD02C34B
:10047000E6E7E55804331560E8E702C3ECE7C04659
:1004800000000020FEE7FEE7000200208C020020B2
:100490009C2C00088C020020C8110020F0B58DB003
:1004A0000A92364A0B931268354B040003919A4224
:1004B00002D0344801F0FEF9039B002B37D0002511
:1004C000314801F0F7F92E00304801F0F3F90A99AC
:1004D0002F4801F075F9039B002B23D12D4801F023
:1004E000E9F931002C4801F06BF96946234BC91A30
:1004F0002A4BC91803D54942294801F061F90B9BE1
:100500001E00201C8268C36801698C4641698E46C2
:10051000AD46311CF0C9A046A946B246BB46F0C95B
:100520004168006801BE1F49052000F095F92500CB
:100530002368E76904936368A6690593A368243573
:100540000693E36807932369089363690993BB05DE
:1005500000D4043D144801F0ADF9079B059A0093BF
:100560000499069B114801F02BF900973300099A72
:1005700008990F4801F024F9A6E7C04600000020C2
:10058000FEE7FEE7A0290008B62900087B2A00083C
:10059000802A0008922A0008C32A0008A8FEFFFF4C
:1005A000EB2A0008182B0008E5290008002A00089B
:1005B0003D2A0008EFF3108072B6704762B6EFF381
:1005C0001080704780F310887047EFF30580C0B249
:1005D000704700000423064A10B511690B431361EC
:1005E000FFF7E8FFBFF34F8F30BFFFF7EBFF10BD02
:1005F00000ED00E0114B10B51870012804D002285E
:1006000011D00120404210BD0E220D4B19680A4343
:100610001A60C022596892000A435A60FFF7DAFF55
:1006200000F042FAEDE70321054B1A688A431A608D
:10063000012219680A431A60F0E7C04664030020EB
:100640000070004010B5FFF7B5FF0022014B1A7093
:1006500010BDC04664030020E12110B5034B044ADD
:100660004902002000F0C8FC10BDC0460402002072
:10067000350A000810B50A000100024800F0E5F94B
:1006800010BDC0460402002010B50C000A00010095
:10069000002000F0EBFB200010BD10B5002000F0A2
:1006A000F9FD10BD044B0200186810B5002802D1F6
:1006B000010000F0D1FD10BDA80300200020F0B51E
:1006C000214F224E3B68224901333B60214B0500FC
:1006D0001A68186033680A601900002904D03C6861
:1006E000A4468C6864451AD9002800D03160002DDA
:1006F00014D0002129608A4222D01100002B05D09D
:1007000050685C681900A04200D811000800126807
:100710001B68002A07D103600D4B1960F0BD0D0066
:1007200001200968D9E7002B01D10260F4E7546881
:100730005E681D00B44200D8150005602800E6E799
:10074000034A1360EAE7C046AC030020B003002070
:10075000B8030020B4030020F8B501232B4F2C4C24
:100760003B602368002B07D1FFF7A8FFFFF795FF39
:10077000431CFBD0002502E0FFF78FFF0500236834
:10078000002B06D1FFF789FF85421ED9FFF796FFA0
:10079000F0E75E68FFF781FF854204D8864202D900
:1007A000361A132EEED823685E68FFF776FF85426F
:1007B00001D88642F7D823681A6818692260002297
:1007C0005A609A60DA689047D9E72368002B0CD00A
:1007D0005E68FFF762FF143E14308642CFD30023D9
:1007E00030003B60FFF75EFFF8BDFFF756FF0600E5
:1007F0008542CBD80300153304D9FFF74EFF86425C
:10080000FBD9C3E701267642E9E7C046A8030020EA
:10081000B8030020002310B5044A0549180000F071
:100820004BFD01204042FFF73DFF10BD5907000876
:1008300040420F0010B50121044800F0F2FB0121F5
:10084000034800F0EEFB00F05BFA10BD0908004819
:1008500008080048704700000D4B10B51A680C00DE
:10086000002A0ED101321A60032803D171460948CB
:1008700000F0A6FF2100084800F0A2FF074800F0A2
:100880009FFFFFF797FEFFF7E5FFFFF7DBFEC04690
:10089000BC030020492B00084D2B0008692B0008E1
:1008A00010B500F0A7FD034800F08AFF00F090FDAE
:1008B000002010BD772B000810B500F0D9F8FCE738
:1008C0001FB5FFF777FE002480210D4B0F221B6818
:1008D000490002930B4B019400930B480C2300F04A
:1008E00035F8C021094B07221B6809010293084B08
:1008F0000194009307480C2300F028F8FFF718FD37
:1009000018020020B9080008C00300201C020020C3
:10091000A1080008C004002070B50B79082B03D98A
:1009200009490320FFF798FF0A004C790832036851
:10093000002B02D18B60026070BD1D00083D6D79F7
:10094000AC42F7D31800F2E7372B0008F0B587B0B8
:1009500005000291039204930F2A30D803220B0062
:10096000024003D004239B1AC518CB1A0322303B44
:1009700093430593EC18049B1B0717D42D6003E0E9
:100980001B600433A342FBD3FFF714FE0123274A65
:100990000190990056581FB2002E13D00133212B1D
:1009A000F7D10198FFF70EFE8B2709E02B00E9E74E
:1009B0002000FFF701FC0198FFF704FE32E0162744
:1009C0007F422FE08C50059B2A000D99E7800C9800
:1009D000FFF766FC029B0121E3620E9B144AA362AF
:1009E000039B2060637101235B42E36113686562CE
:1009F00001331360049B2671A660E6602661666180
:100A0000A66126620B42D3D10A212000FFF7D4FB56
:100A1000049B5B07CFD40198FFF7D4FD6B46988900
:100A2000FFF708FC380007B0F0BDC046E002002028
:100A30009C02002070B5040000F0A2FC050020001C
:100A4000103000F00BFD280070BD70B504000D00E3
:100A5000160032002900200000F07CFC002800D0A5
:100A600070BD20000121103000F0C8FCF1E700004B
:100A700073B504240B4D01AA2B680193631E995C86
:100A8000002901D11C1EF9D1FFF794FD2B68019AB2
:100A900006009A4202D160B2FFF7ACFD3000FFF7CA
:100AA00091FD73BD2002002070B50026FFF782FD86
:100AB0001E4D0400AE6000F043F80C226E606968C1
:100AC0001142FCD111211A4A116081222A60802230
:100AD000296852020A432A60802292022968114240
:100AE000FCD06A6813490A406A6088226968520328
:100AF0000A436A608022296852040A432A608022DD
:100B0000920429681142FCD0022269680A430C2130
:100B10006A606A680A40082AFBD100F01DF8064B9B
:100B2000064A20009A62FFF74DFD70BD001002409A
:100B300000200240FFFFC0FFC0100020006CDC025C
:100B40000122044B19680A431A60022219681142F3
:100B5000FCD07047001002400C22044B596811422F
:100B600003D001211A688A431A60704700100240BE
:100B70000122044B596A0A435A620222596A1142FD
:100B8000FCD07047001002408023034A5B001168CC
:100B90000B4313607047C04600700040F7B58027D4
:100BA00080228020FF0012023900800500F0C4FC82
:100BB0004C4C8022206080200426D202390000059F
:100BC000267100F0B9FC484D484A2B68A0601B050F
:100BD0001B0D9B18082B43D801229A401300822238
:100BE0005200134238D1D33A134239D02761E16819
:100BF00000F02EFD2675E0600423002623773C4B91
:100C00003A4A23623B4BA661A38423872B681B05CA
:100C10001B0D9B18082B01D8374AD65C80278022F1
:100C200080200A23FF00D202390000055E4300F055
:100C300083FC8022800A5200432390421FD033D885
:100C40000D3B20281BD011D8033B082817D00133B7
:100C5000102814D0782312E080231B012361C6E7FB
:100C600000232361E36004332375C5E74223802812
:100C700005D01833C02802D0223B4028EAD12000FA
:100C800000931E4A33003A30142100F01DFE2B68F9
:100C9000164A1B051B0D9B180022082B01D8164A6B
:100CA000D25C4E342270F7BDC0224623920090429F
:100CB000E5D009D8813AFF3A023B9042DFD080323A
:100CC00001339042DBD0C5E7C0224823D2009042D6
:100CD000D5D08022013312019042D0D0023BB842DD
:100CE000B8D1CCE7C010002000580140C0FBFFFF86
:100CF000008000800080FFFFAB2B0008B42B0008B1
:100D000010B500F0D1FB80210020490500F018F853
:100D1000FFF7CAFE00F047FBFFF740FF10BD0000E1
:100D2000014B986A7047C046C0100020024B034A2E
:100D30001B5C906A58437047C22B0008C01000200B
:100D400001280BD0002804D002280CD0BFF34F8F0D
:100D50007047074AD3691943D161F7E7044A936999
:100D600019439161F2E7024A536919435161EDE772
:100D700000100240012809D0002802D002280AD021
:100D80007047074AD3698B43D361F9E7044A9369F3
:100D90008B439361F4E7024A53698B435361EFE756
:100DA00000100240182343430D4A70B59C58E56972
:100DB000AB0607D50B4BC000A18C1A18C9B2C3589B
:100DC0005068984708231D4202D0226A13432362C9
:100DD000054B1B68002B01D0FFF7AEFA70BDC04673
:100DE000C42B00081011002098020020F7B5182429
:100DF00044431C4D01912F193E7D3000FFF790FFB9
:100E0000019900F025FC072806D830007968FFF723
:100E1000B1FF02204042FEBD012163591A688A4396
:100E20001A60C2B20F2810D880211868083A090247
:100E30000143100010220243D2B21960DA6001228D
:100E4000196800200A431A60E5E71968064C000992
:100E5000214019600F2100050A40000C1043D860A2
:100E6000EDE7C046C42B0008FF7FFFFF70B50128E7
:100E70000CD81823802458430A4B8A18C35891422F
:100E800008D14022D9691142FCD070BD0649032027
:100E9000FFF7E2FC0878DD692542FCD080B21885B6
:100EA0000131ECE7C42B0008372B000810B50128EE
:100EB00003D906490320FFF7CFFC18235843044BFE
:100EC0001B18187D5968FFF73BFF10BD372B000832
:100ED000C42B0008F7B505000E000192012803D9C4
:100EE00041490320FFF7B8FC1824C1003F4A01988C
:100EF0006C438850521853603D4B1C19A368217CE9
:100F00001800009300F08DF8E768617C380000F06D
:100F100088F8380000F05BF9E17C380000F018F93F
:100F2000019B002B07D00021009800F07AF8A17CEB
:100F3000009800F00DF92800FFF7B8FF18236B4365
:100F40002B4AD458002323606360A3603379012BBC
:100F500004D1802322685B01134323607379012B42
:100F600028D0022B31D0B379022B32D0032B34D0CE
:100F7000002B04D1802362685B01134363603168F6
:100F80002800FFF733FF00282AD109232360019BA3
:100F9000002B0ED018235D43154B5D191F236A7D6E
:100FA0001A401E3B9340134A1360242322681343C4
:100FB0002360FEBD80232268DB001343236080236F
:100FC00022689B0013432360CDE780232268DB0067
:100FD000F8E7C02362689B01CFE762688023FAE7E5
:100FE00002204042E5E7C046372B000810110020E0
:100FF000C42B000800E100E013B500916C4600210D
:10100000A1800131A1716946FFF764FF16BD10B5DB
:101010000020FFF7C7FE10BD10B50120FFF7C2FE8C
:1010200010BDF8B503000D00421C36D00F20802102
:101030001C001E0003279B0A0340890284430640CC
:1010400099400D38FFF77CFE3A0070008240D34390
:1010500021681940216021688C462900394081406F
:1010600063461943D3432160E1680B40E360AB085A
:101070003B408340E1682D090B4301210800B0404B
:101080000D40B540E360636883430020636063689C
:101090001D436560A3681A43A260F8BDF7B506005A
:1010A0000F001500421C4AD00F220400810A114093
:1010B0001440234A0191E1008B5052180121089BF2
:1010C00008005360FFF73CFE39003000FFF7A9FF2E
:1010D0001C4B2022012C03DD4022032C00DD80224A
:1010E0001A6001221000A040C043174B99680140CC
:1010F00099602900D5401140A140A5409F68A410E7
:1011000039439960D968A4000840D860D968B240D2
:101110000D430E49DD60641803210F25314089001D
:101120008D40A068A843019DA0608D402900A06863
:1011300001430020A1605A6119680A431A60FEBD8C
:101140002011002000E100E0000401400000014007
:1011500070B5431C1BD00F2203230500104046002E
:10116000B34095432C689C4323000224B4401C43A5
:101170002C60072484429B412040800082408140B3
:101180005B429B00EB181D6A95432943196270BDB1
:1011900010B5431C16D00F220100914302400320DA
:1011A0005400A0400B680340E340DBB2012B04D1A4
:1011B000486993401840D04010BD002B05D1086904
:1011C0000133F6E702204042F6E70120FBE7431C2B
:1011D00006D00F23020018409A430E3B83409361D0
:1011E0007047431C07D00F23020018409A43103069
:1011F0000E3B83409361704710B50400FFF7C8FFB2
:10120000002803D02000FFF7ECFF10BD2000FFF7FF
:10121000DEFFFAE7F8B5002401270C4D6B692E6854
:101220001E403B00A3401E4206D0094A6B61E3000A
:101230009B181A68586890470134102CF1D1054B5F
:101240001B68002B01D0FFF777F8F8BD00040140C0
:10125000201100209802002010B5032914DC0C4B4B
:101260000001C4581B185B6800201A400B000C33A7
:101270009B00E3185A6002238B4022699A43226143
:10128000E2681343E36010BD01204042FBE7C04623
:10129000F42B0008024B0001C358586A7047C0463F
:1012A000F42B0008034B0001C258012311680B43C3
:1012B00013607047F42B000870B504000E0000287E
:1012C0001ED1114980250CC10121FFF739FD0123F1
:1012D000ED055B422C6020006C60EB62FFF726FDA1
:1012E000310000F0B5F9012380220138A8626B615A
:1012F000064B120220001A60FFF7D4FF200070BDD9
:1013000001204042FBE7C046A011002000E100E0C0
:10131000F8B5802400250227E4052369E6681E400D
:101320003A00AA40324207D0E36829009343E360C1
:10133000064B1A68586890470135042DF0D1044BCC
:101340001B68002B01D0FEF7F7FFF8BDA0110020AD
:1013500098020020130030B5002B03D08568C468C4
:10136000A54201D1D01A30BD8468013B651C85605F
:101370004568013D2C4005682C5D0C700131EBE7A0
:10138000C36830B5426884681B1B934208D0C368A9
:1013900004685D1CC5600020013A1340E15430BD73
:1013A00001204042FBE710B500F0D6F810BD000068
:1013B000902010B5C005FFF7EBFE002802D10348CE
:1013C000FFF705FF0148FFF717FF10BD09080048A8
:1013D00007B5002190200091044B0322C005FFF7C0
:1013E0005DFE01210248FFF71CFEFEE7B113000875
:1013F0000808004810B5FFF70DFA10BD70B50400DD
:101400000D00FFF7D7F823680600002B06D1013B3B
:101410002360FFF7D7F80125280070BD002D18D0F4
:101420000D4B02211D682800FEF7C6FE236801331C
:101430000AD12B00083323600023AB603000FFF794
:10144000C1F8FEF779FFE6E729002000FFF764FA0C
:10145000F4E7FFF7B7F8DFE79402002070B5050066
:10146000FFF7A8F82C680600002C03D13000FFF726
:10147000A9F870BD631C02D100232B60F6E7236836
:10148000083C2B600A212000FEF796FE2B68002BFB
:1014900001D1013B2B6064793000FFF793F8200005
:1014A000FEF7C8FEE5E70000184B19491A6AF0B5C7
:1014B00011408022D2030A4380211A62DA69C905E9
:1014C0001202120A0A43DA610322C025002194465F
:1014D000FF27AD0064463E000C40E400A6408A08A9
:1014E0000C489200121850590131B0434026A640D2
:1014F000304350511F29EDD1102219690A431A6156
:101500008022596992000A435A61F0BD00ED00E063
:10151000FFFF00FF00E100E020B5044D0449054A4B
:101520000378681E8541E8B220BD0000010000007C
:101530000DF0ADDEBEBAFECAF8B505000F0016000C
:101540000400E4192000FFF7E7FF631B002801D027
:101550009E42F6D81800F8BD10B5FFF709FBFFF75B
:1015600013FB204B20491A6A40200A401A6282224B
:10157000196A12020A431A62CA221C4B5A62773A4B
:101580005A62D9682D320A43DA60DA680242FCD026
:10159000002280219A60164AD9601A619A688243B3
:1015A0009A609A68134802409A60DA688A43DA605F
:1015B0004022D9681142FCD1FF225A620E4A0F49DB
:1015C000D3680B40D360802391689B0219439160DC
:1015D00011681943116051690B4353610422084B90
:1015E0001A6010BD00100240FFFCFFFF0028004001
:1015F0009F0F0900FFF7FFFF00040140FFFFFDFF01
:1016000000E100E010B50D4CE368DB050FD50C4A96
:101610001368002B01D0D0689847E368094A13404B
:10162000E3608023084A9B0251690B435361074BD7
:101630001B68002B01D0FEF77FFE10BD0028004084
:10164000A8110020FFFEFFFF0004014098020020C7
:10165000002243088B4274D303098B425FD3030AF1
:101660008B4244D3030B8B4228D3030C8B420DD304
:10167000FF22090212BA030C8B4202D31212090292
:1016800065D0030B8B4219D300E0090AC30B8B42D0
:1016900001D3CB03C01A5241830B8B4201D38B037E
:1016A000C01A5241430B8B4201D34B03C01A524123
:1016B000030B8B4201D30B03C01A5241C30A8B4266
:1016C00001D3CB02C01A5241830A8B4201D38B0251
:1016D000C01A5241430A8B4201D34B02C01A5241F5
:1016E000030A8B4201D30B02C01A5241CDD2C30967
:1016F0008B4201D3CB01C01A524183098B4201D3E3
:101700008B01C01A524143098B4201D34B01C01ACD
:10171000524103098B4201D30B01C01A5241C30845
:101720008B4201D3CB00C01A524183088B4201D3B4
:101730008B00C01A524143088B4201D34B00C01AA0
:101740005241411A00D20146524110467047FFE70C
:1017500001B5002000F006F802BDC0460029F7D010
:1017600076E770477047C04670B500260C4D0D4CAB
:10177000641BA410A64209D10026FEF7A3FC0A4D63
:101780000A4C641BA410A64205D170BDB300EB58EF
:1017900098470136EEE7B300EB5898470136F2E779
:1017A0009C2C00089C2C00089C2C00089C2C0008F9
:1017B00003001218934200D1704719700133F9E702
:1017C0000FB40B4B13B51C68002C05D0A369002B7C
:1017D00002D1200000F06EFA05AB049AA168200047
:1017E000019300F097FD16BC08BC04B01847C04632
:1017F0002402002070B505000E00002804D0836983
:10180000002B01D100F056FAAB69AC68002B02D175
:10181000280000F04FFA244B9C420FD16C68A3893A
:101820001B0702D52369002B1FD12100280000F0DF
:10183000D3F8002819D00120404270BD1B4B9C42B8
:1018400001D1AC68EBE71A4B9C42E8D1EC68E6E7C3
:101850000136A360002B04DAA2699A4216DC0A2939
:1018600014D023685A1C22601970A3683178013B98
:101870000029EDD1A360002B0FDA22000A312800E5
:1018800000F054F8431CD6D00A20D6E722002800E6
:1018900000F04CF8431CE8D1CDE70A2023685A1C1D
:1018A00022601870C9E7C046282C0008482C0008A0
:1018B000082C000810B5034B01001868FFF79AFFC9
:1018C00010BDC046240200200CB430B5164B9DB0AC
:1018D0000C1E1D6808DA8B2301202B6040421DB0CE
:1018E00030BC08BC02B01847822302A99B008B8140
:1018F0000023029008619C4200D0631E8B604B6104
:1019000001235B42CB81209A21AB2800019300F098
:10191000DBFB431C01DA8B232B60002CDFD0002380
:10192000029A1370DBE7C04624020020F8B50500D8
:101930000E001400002804D08369002B01D100F0B0
:10194000B9F9224B9C422DD16C68A369A360A3898D
:101950001B0731D52369002B2ED023682269F7B2EB
:10196000981A6369F6B2834205DC2100280000F072
:1019700033F9002826D1A3680130013BA360236816
:101980005A1C22601F706369834204D0A389DB075D
:101990001AD50A2E18D12100280000F01DF90028C0
:1019A00012D00FE00A4B9C4201D1AC68CDE7094B45
:1019B0009C42CAD1EC68C8E72100280000F00CF86E
:1019C0000028CAD0012676423000F8BD282C000835
:1019D000482C0008082C0008364B70B51D6806001E
:1019E0000C00002D05D0AB69002B02D1280000F0BF
:1019F00061F9314B9C420FD16C680C23E25E93B2CB
:101A000019072DD4D90611D40923012033603733A7
:101A10001343A381404270BD284B9C4201D1AC6866
:101A2000EBE7274B9C42E8D1EC68E6E75B0713D570
:101A3000616B002908D023004433994202D0300062
:101A400000F038FA002363632422A3899343A3811F
:101A500000236360236923600823A2891343A381C1
:101A60002369002B0BD1A0218022A3898900920039
:101A70000B40934203D02100300000F0D7F901233E
:101A8000A289134011D00023A36063695B42A36164
:101A9000002023698342BED10C23E25E1306BAD52F
:101AA00040231343A3810138B5E7920700D463694B
:101AB000A360EDE724020020282C0008482C000831
:101AC000082C0008F7B58A8905000C00130760D4BC
:101AD0004B68002B04DC0B6C002B01DC0020FEBDEE
:101AE000E76A002FFAD000232E682B6080235B0169
:101AF000216A1A4034D0606DA3895B0706D56368FC
:101B0000C01A636B002B01D0236CC01A0200216A3B
:101B100000232800E76AB847A189431C06D12B6837
:101B20001D2B30D82B4ADA40D3072CD50023636015
:101B300023692360CB0405D5431C02D12B68002BFD
:101B400000D16065616B2E600029C7D0230044334B
:101B5000994202D0280000F0ADF900206063BEE792
:101B600001232800B847431CC6D12B68002BC3D0E3
:101B70001D2B01D0162B01D12E60AFE74023A28987
:101B80001343A381ABE740230B430120A3814042D1
:101B9000A5E70F69002FA1D00B680F60DB1B019335
:101BA0000023920700D14B69A360019B002B00DC4E
:101BB00094E7019B3A00216A2800A66AB0470028F2
:101BC00003DC4023A2891343DFE7019B3F181B1A64
:101BD0000193EAE7010040200B6970B505000C0095
:101BE000002B01D1002070BD002804D08369002B98
:101BF00001D100F05FF80B4B9C4209D16C680C22BC
:101C0000A35E002BEED021002800FFF75BFFEAE780
:101C1000054B9C4201D1AC68F1E7044B9C42EED1EC
:101C2000EC68ECE7282C0008482C0008082C000879
:101C3000002310B504000360436083608181436624
:101C4000C281036143618361190008225C30FFF7A0
:101C5000AFFD054B24626362044BA362044BE36255
:101C6000044B236310BDC0462D28000855280008EA
:101C70008D280008B928000810B5024900F08CF83A
:101C800010BDC046D91B000870B568254A1E5543D3
:101C90000E002900743100F057F9041E08D000210D
:101CA0002A00016046600C30A0606832FFF780FDBA
:101CB000200070BD836913B50400002B28D1836414
:101CC000C3640365134B144A1B68826201939842F4
:101CD00001D101238361200000F020F86060200022
:101CE00000F01CF8A060200000F018F80022E0606E
:101CF00004216068FFF79CFF01220921A068FFF71B
:101D000097FF02221221E068FFF792FF0123A361EF
:101D100013BDC046042C0008791C0008F8B51C4B04
:101D200007001E68B369002B02D13000FFF7C2FF25
:101D30004836B4687368013B04D53368002B07D07C
:101D40003668F6E70C22A55E002D0DD06834F2E768
:101D500004213800FFF798FF30600028F0D10C23F1
:101D600004003B602000F8BD20000A4B656625603A
:101D70006560A560E36025616561A56108222900B1
:101D80005C30FFF715FD6563A563A564E564E9E7CD
:101D9000042C00080100FFFFF7B50400070000262F
:101DA00001914834002C01D13000FEBD6368A56864
:101DB0000093009B013B009301D52468F2E7AB89B7
:101DC000012B08D90E22AB5E013304D02900380064
:101DD000019B984706436835EBE7000070B50E009D
:101DE0001D000E23C95E96B01400002907DA0023F7
:101DF0002B60B3891B0611D48023DB000FE06A46F9
:101E0000FEF79AF90028F2DBF022019B1202134040
:101E1000054A9B185A4253412B60EDE740230020AE
:101E2000236016B070BDC04600E0FFFFF7B5022684
:101E30008B8905000C00334206D023004733236012
:101E4000236101236361F7BD01AB6A46FFF7C6FF5B
:101E500000990700280000F077F8002808D10C222C
:101E6000A35E9A05EFD4032293431E43A681E4E7C1
:101E70000F4BAB628023A28920601343A381009B98
:101E800020616361019B002B0DD00E23E15E2800D1
:101E9000FEF757F9002806D00322A38993431A00BE
:101EA00001231343A381A0893843A081CBE7C04617
:101EB000791C000870B50500002910D00C1F23689C
:101EC000002B00DAE418280000F023FD1D4A1368F7
:101ED000002B05D163601460280000F01BFD70BD6D
:101EE000A34209D9216860188342F3D118685B685E
:101EF00041182160EEE713005A68002A01D0A2427F
:101F0000F9D919685818A0420BD120680918581837
:101F100019608242E0D110685268411819605A6015
:101F2000DAE7A04202D90C232B60D5E721686018BC
:101F3000824203D1106852684118216062605C607F
:101F4000CAE7C046C0110020032370B5CD1C9D43D5
:101F5000083506000C2D1ED20C25A9421DD83000D4
:101F600000F0D7FC254A14682100002919D1244C1F
:101F70002368002B03D13000FEF7AAF82060290067
:101F80003000FEF7A5F8431C2BD10C233000336042
:101F900000F0C0FC03E0002DDFDA0C2333600020EA
:101FA00070BD0B685B1B19D40B2B03D90B60CC18CD
:101FB000256003E04B688C420DD11360300000F0C7
:101FC000A9FC200007220B30231D9043C31AE7D041
:101FD0005A42E250E4E763600C00EFE70C00496806
:101FE000C3E70323C41C9C43A042E1D0211A300064
:101FF000FEF76EF8431CDBD1C7E7C046C0110020D6
:10200000C4110020F0B58E6885B007000C00039263
:1020100001939E423CD890238A89DB001A4234D037
:102020000325096923685B1A0293636902985D437B
:10203000EB0F5D19019B6D1001331B18AB4200D9EA
:102040001D00530532D529003800FFF77DFF061E1D
:1020500009D10C233B6040230120A2894042134355
:10206000A38105B0F0BD029A216900F036FCA38976
:10207000144A1A4080231343A381029B2661F61859
:1020800026606561019EED1AA560019B9E4200D904
:10209000019E32000399206800F028FCA36800200C
:1020A0009B1BA36023689E192660DAE72A0038008C
:1020B00000F031FC061EE0D121693800FFF7FAFE7E
:1020C000C7E7C0467FFBFFFFF0B5A1B003901D003E
:1020D0008B890F0016001B0611D50B69002B0ED142
:1020E0004021FFF731FF38603861002805D10C230B
:1020F000039A0138136021B0F0BD40237B610023B7
:1021000008AC6361203363761033A37607953500FE
:102110002B78002B01D0252B46D1AB1B05930CD07F
:10212000320039000398FFF76DFF431C00D1AEE089
:102130006269059B9446634463612B78002B00D150
:10214000A5E0012200235242626004A954325218D1
:102150006E1C2360E360A3601370A36531780522D1
:10216000534800F0AFFB751C00281FD12268D3062E
:1021700004D5532304A95B1820211970130704D533
:10218000532304A95B182B21197033782A2B16D0FE
:10219000350000210A20E3682A786E1C303A092AAB
:1021A0004ED9002918D010E00135B1E7404B226824
:1021B000C01A01238340134323602E00CEE7079B00
:1021C000191D1B680791002B01DB0B9304E05B4298
:1021D000E3600223134323602B782E2B0AD16B7804
:1021E0002A2B35D1079B02351A1D1B680792002B3D
:1021F0002BDB09932F4E29780322300000F062FB7D
:10220000002806D04023801B8340226801351343F9
:1022100023602978062228486E1C217600F052FBA4
:1022200000283CD0254B002B25D10722079B0733E4
:102230009343083307936369049A9B18636166E7C5
:10224000434301219B183500A6E701235B42D0E7F9
:1022500000230A201A000135636029786E1C30398A
:10226000092903D9002BC5D00992C3E742430123B2
:1022700052183500F1E707AB00933A00104B2100EC
:10228000039800E000BF0490049B0133D3D1BB89C5
:102290000D985B0600D42EE7012040422BE707ABE8
:1022A00000933A00064B2100039800F0B7F9EAE7E3
:1022B000682C00086E2C0008722C0008000000003A
:1022C00005200008936810B5013B9360002B04DAE9
:1022D0009469A34207DB0A2905D01368581C1060D3
:1022E0001970080010BDFFF721FB0100F9E7F8B5F0
:1022F00006000F001400D518AC4201D1002007E001
:1023000021783A003000FFF7DDFF0134431CF3D1A0
:10231000F8BD0000F0B5A1B003900F0016001D003D
:10232000002805D083690593002B01D1FFF7C2FC7B
:102330007B4B9F425CD1039B5F68BB891B0763D5C6
:102340003B69002B60D0002308AC636120336376C7
:102350001033A376079535002B78002B01D0252B61
:102360005CD1AB1B05930CD0320039000398FFF70A
:10237000BEFF431C00D1C4E06269059B94466344E0
:1023800063612B78002B00D1BBE001220023524275
:10239000626004A9543252186E1C2360E360A3608B
:1023A0001370A365317805225E4800F08BFA751C26
:1023B000002835D12268D30604D5532304A95B181D
:1023C00020211970130704D5532304A95B182B216E
:1023D000197033782A2B2CD0350000210A20E368AD
:1023E0002A786E1C303A092A64D900292ED026E0BA
:1023F0004D4B9F4202D1039B9F689EE74B4B9F42F0
:102400009BD1039BDF6898E739000398FFF7E4FA54
:10241000002898D00120404221B0F0BD01359BE753
:10242000404B2268C01A01238340134323602E00CF
:10243000B8E7079B191D1B680791002B01DB0B9365
:1024400004E05B42E3600223134323602B782E2BCE
:102450000AD16B782A2B35D1079B02351A1D1B68D0
:102460000792002B2BDB0993314E29780322300091
:1024700000F028FA002806D04023801B8340226801
:10248000013513432360297806222A486E1C2176E1
:1024900000F018FA00283AD0274B002B25D107224C
:1024A000079B07339343083307936369049A9B1888
:1024B000636150E7434301219B18350090E70123F6
:1024C0005B42D0E700230A201A00013563602978B7
:1024D0006E1C3039092903D9002BC5D00992C3E7F6
:1024E0004243012352183500F1E707AB00933A004D
:1024F000124B2100039800E000BF0490049B0133BD
:10250000D3D1BB895B0600D584E70D9884E707AB80
:1025100000933A00094B2100039800F07FF8ECE7A4
:10252000282C0008682C0008482C0008082C0008FB
:102530006E2C0008722C000800000000EF2200083A
:10254000F7B5150001938A680B6900900C0093425F
:1025500000DA130022002B6043321278002A01D0E7
:1025600001332B6023689B0602D52B6802332B6056
:10257000062723681F4027D0230043331B785A1EA9
:1025800093412268920630D4220001994332009888
:10259000089EB047431C25D0062320682A68E168BE
:1025A00003400025042B03D18D1AEB43DB171D409C
:1025B000A3682269934201DD9B1AED180027BD42F2
:1025C00020D1002010E00137E3682A689B1ABB4243
:1025D000D2DD22000123193201990098089EB047EC
:1025E000431CF0D101204042FEBD3020E1184331B0
:1025F000087021005A1C45310978A2184332023371
:102600001170C1E7220001231A3201990098089E37
:10261000B047431CE6D00137D1E70000F0B589B0E0
:1026200004920A0043320593039002920A7E0C0042
:102630000E9B6E2A00D186E01FD8632A33D008D8BB
:10264000002A00D18CE0582A4DD0250042352A704E
:1026500030E0642A01D0692AF7D1196825680A1D7B
:10266000280629D508681A60002803DA2D23029A63
:10267000404213706B4E0A274FE0732A74D008D87B
:102680006F2A1FD0702AE0D1202209680A432260F5
:1026900003E0752A16D0782AD7D122007821453256
:1026A0001170614E22E025001A684235111D196033
:1026B00013682B70012365E008681A606906D3D59A
:1026C00000B2D1E719682568081D186008682E0651
:1026D00005D5544E08276F2A1BD00A2719E06D062E
:1026E000F7D580B2F5E745314E4E0A70186822687A
:1026F000011D00681960150621D5D30702D52023D6
:102700001A4322601027002803D1202322689A430D
:1027100022602300002243331A706368A360002BF9
:1027200058DB0422216891432160002854D1029D86
:10273000002B5AD02500337842352B7055E05506D2
:10274000DBD580B2D9E71A680D68101D4969186099
:1027500013682E0601D5196002E06D06FBD51980BD
:102760000023029D23614FE01A68111D196015684E
:1027700000216268280000F0A5F8002801D0401B65
:102780006060636823610023029A13703CE0236950
:102790002A0004990398059DA847431C3ED023684E
:1027A0009B0715D4079BE068984239DA180037E098
:1027B00022000123193204990398059EB047431C57
:1027C0002CD00135E368079A9B1AAB42F0DCE9E7AD
:1027D0000025F7E70028ADD0029D3900FEF7BEFFC7
:1027E000735C013D2B700028F7D1082F09D12368B5
:1027F000DB0706D563682269934202DC3023013D82
:102800002B70029B5B1B2361059B07AA0093210091
:10281000049B0398FFF794FE431CB8D1012040426B
:1028200009B0F0BD792C00088A2C000870B50C00A6
:102830000E25495FFDF76AFC002803DB636D1B185A
:10284000636570BDA389024A1340A381F9E7C046BE
:10285000FFEFFFFFF8B51F008B8905000C00160085
:10286000DB0505D50E23C95E00220223FDF75FFCC0
:10287000A389054A28001340A38132000E23E15E9C
:102880003B00FDF749FCF8BDFFEFFFFF70B50C0002
:102890000E25495FFDF74BFCA389421C03D1054A75
:1028A0001340A38170BD802252011343A381606550
:1028B000F8E7C046FFEFFFFF10B50E23C95EFDF736
:1028C00031FC10BDC9B28218904201D1002070477E
:1028D00003788B42FBD00130F6E7002310B59A4213
:1028E00000D110BDCC5CC4540133F8E710B5884268
:1028F00002D98B18984203D3002307E08B5C8354E2
:10290000013AFBD210BDCC5CC45401339A42FAD1D7
:10291000F8E770477047F8B507000D00160000296A
:1029200005D11100FFF710FB04002000F8BD002ABC
:1029300003D1FFF7BFFA3400F7E700F012F82C00DC
:10294000B042F2D231003800FFF7FEFA041EECD09C
:1029500029003200FFF7C1FF29003800FFF7AAFA6B
:10296000E3E70B1F1B68181F002B01DA0B58C01878
:10297000704700011C021D0E18031E16140F1911BA
:1029800004081F1B0D17151310071A0C12060B0550
:102990000A0944554D4D592048414E444C4552007A
:1029A0000A49535220737461636B206F76657266B7
:1029B0006C6F77656400537461636B20706F696E30
:1029C00074657220636F727275707465642C207206
:1029D0006573657420746F20746F70206F66207348
:1029E0007461636B000A436F6E746578742062656E
:1029F000666F726520686172646661756C743A0016
:102A000020202072303A2030782530386C780A2027
:102A1000202072313A2030782530386C780A202016
:102A20002072323A2030782530386C780A20202005
:102A300072333A2030782530386C780A00202072C2
:102A400031323A2030782530386C780A2020206CDA
:102A5000723A2030782530386C780A202020706354
:102A60003A2030782530386C780A20207073723A1A
:102A70002030782530386C780A0A004D697363007D
:102A80004558435F5245543A2030782530386C78A9
:102A90000A00417474656D7074696E6720746F20EC
:102AA0007265636F6E73747275637420737461748E
:102AB0006520666F7220646562756767696E672E50
:102AC0002E2E00496E204744423A0A202073657436
:102AD000202470633D3078256C780A20206672616E
:102AE0006D6520300A202062740A000A4953522082
:102AF000737461636B206F766572666C6F77656463
:102B0000206279206174206C6561737420256420D3
:102B100062797465732E0A0048415244204641553B
:102B20004C542048414E444C4552004E4D4920489B
:102B3000414E444C4552004641494C454420415386
:102B400053455254494F4E2E0025700A002A2A2A16
:102B50002052494F54206B65726E656C2070616E17
:102B600069633A0A25730A0A002A2A2A2068616CD6
:102B70007465642E0A0A006D61696E28293A205432
:102B80006869732069732052494F54212028566583
:102B90007273696F6E3A20323031382E3037290A1D
:102BA0000069646C65006D61696E000500090003D1
:102BB0000400000753544D333246253033647825E2
:102BC0006300010100380140004000000704004894
:102BD0000604004800000000011B00000044004003
:102BE000000002000300004802000048000001014C
:102BF000001C000000000040FFFFFFFF010000007C
:102C0000000F00002802002000000000000000006B
:102C100000000000000000000000000000000000B4
:102C200000000000000000000000000000000000A4
:102C30000000000000000000000000000000000094
:102C40000000000000000000000000000000000084
:102C50000000000000000000000000000000000074
:102C60000000000000000000232D302B2000686CC5
:102C70004C0065666745464700303132333435369F
:102C800037383941424344454600303132333435D8
:0C2C900036373839616263646566000005
:102C9C00CC11002065030020400000000000000063
:102CAC000000000000000000A12B0008A62B00086B
:102CBC00010101012802002000000000282C00085E
:102CCC00482C0008082C0008000000000000000040
:102CDC0000000000000000000000000000000000E8
:102CEC0000000000000000000000000000000000D8
:102CFC0000000000000000000000000000000000C8
:102D0C0000000000000000000000000000000000B7
:0C2D1C0000000000000000002821000062
:0400000508000435B6
:00000001FF
